{
  "_format": "hh-sol-artifact-1",
  "contractName": "chai",
  "sourceName": "contracts/Chai.sol",
  "abi": [
    {
      "inputs": [],
      "stateMutability": "nonpayable",
      "type": "constructor"
    },
    {
      "inputs": [
        {
          "internalType": "string",
          "name": "name",
          "type": "string"
        },
        {
          "internalType": "uint256",
          "name": "phoneNumber",
          "type": "uint256"
        }
      ],
      "name": "buyChai",
      "outputs": [],
      "stateMutability": "payable",
      "type": "function"
    },
    {
      "inputs": [],
      "name": "getMemos",
      "outputs": [
        {
          "components": [
            {
              "internalType": "string",
              "name": "name",
              "type": "string"
            },
            {
              "internalType": "uint256",
              "name": "phoneNumber",
              "type": "uint256"
            },
            {
              "internalType": "uint256",
              "name": "timestamp",
              "type": "uint256"
            },
            {
              "internalType": "address",
              "name": "from",
              "type": "address"
            }
          ],
          "internalType": "struct chai.Memo[]",
          "name": "",
          "type": "tuple[]"
        }
      ],
      "stateMutability": "view",
      "type": "function"
    },
    {
      "inputs": [
        {
          "internalType": "uint256",
          "name": "phoneNumber",
          "type": "uint256"
        }
      ],
      "name": "getParticulardata",
      "outputs": [
        {
          "components": [
            {
              "internalType": "string",
              "name": "name",
              "type": "string"
            },
            {
              "internalType": "uint256",
              "name": "phoneNumber",
              "type": "uint256"
            },
            {
              "internalType": "uint256",
              "name": "timestamp",
              "type": "uint256"
            },
            {
              "internalType": "address",
              "name": "from",
              "type": "address"
            }
          ],
          "internalType": "struct chai.Memo",
          "name": "",
          "type": "tuple"
        }
      ],
      "stateMutability": "view",
      "type": "function"
    }
  ],
  "bytecode": "0x608060405234801561001057600080fd5b5033600260006101000a81548173ffffffffffffffffffffffffffffffffffffffff021916908373ffffffffffffffffffffffffffffffffffffffff160217905550610d60806100616000396000f3fe6080604052600436106100345760003560e01c8063206eca0214610039578063865c517214610055578063e5f49ef914610080575b600080fd5b610053600480360381019061004e9190610638565b6100bd565b005b34801561006157600080fd5b5061006a6102a9565b604051610077919061089d565b60405180910390f35b34801561008c57600080fd5b506100a760048036038101906100a291906108bf565b610404565b6040516100b4919061094f565b60405180910390f35b60003411610100576040517f08c379a00000000000000000000000000000000000000000000000000000000081526004016100f7906109ce565b60405180910390fd5b600080805490509050806001600084815260200190815260200160002081905550600260009054906101000a900473ffffffffffffffffffffffffffffffffffffffff1673ffffffffffffffffffffffffffffffffffffffff166108fc349081150290604051600060405180830381858888f19350505050158015610189573d6000803e3d6000fd5b506000604051806080016040528086868080601f016020809104026020016040519081016040528093929190818152602001838380828437600081840152601f19601f8201169050808301925050505050505081526020018481526020014281526020013373ffffffffffffffffffffffffffffffffffffffff16815250908060018154018082558091505060019003906000526020600020906004020160009091909190915060008201518160000190816102459190610c29565b50602082015181600101556040820151816002015560608201518160030160006101000a81548173ffffffffffffffffffffffffffffffffffffffff021916908373ffffffffffffffffffffffffffffffffffffffff160217905550505050505050565b60606000805480602002602001604051908101604052809291908181526020016000905b828210156103fb578382906000526020600020906004020160405180608001604052908160008201805461030090610a4c565b80601f016020809104026020016040519081016040528092919081815260200182805461032c90610a4c565b80156103795780601f1061034e57610100808354040283529160200191610379565b820191906000526020600020905b81548152906001019060200180831161035c57829003601f168201915b5050505050815260200160018201548152602001600282015481526020016003820160009054906101000a900473ffffffffffffffffffffffffffffffffffffffff1673ffffffffffffffffffffffffffffffffffffffff1673ffffffffffffffffffffffffffffffffffffffff1681525050815260200190600101906102cd565b50505050905090565b61040c610555565b6000600160008481526020019081526020016000205490506000818154811061043857610437610cfb565b5b906000526020600020906004020160405180608001604052908160008201805461046190610a4c565b80601f016020809104026020016040519081016040528092919081815260200182805461048d90610a4c565b80156104da5780601f106104af576101008083540402835291602001916104da565b820191906000526020600020905b8154815290600101906020018083116104bd57829003601f168201915b5050505050815260200160018201548152602001600282015481526020016003820160009054906101000a900473ffffffffffffffffffffffffffffffffffffffff1673ffffffffffffffffffffffffffffffffffffffff1673ffffffffffffffffffffffffffffffffffffffff1681525050915050919050565b6040518060800160405280606081526020016000815260200160008152602001600073ffffffffffffffffffffffffffffffffffffffff1681525090565b600080fd5b600080fd5b600080fd5b600080fd5b600080fd5b60008083601f8401126105c2576105c161059d565b5b8235905067ffffffffffffffff8111156105df576105de6105a2565b5b6020830191508360018202830111156105fb576105fa6105a7565b5b9250929050565b6000819050919050565b61061581610602565b811461062057600080fd5b50565b6000813590506106328161060c565b92915050565b60008060006040848603121561065157610650610593565b5b600084013567ffffffffffffffff81111561066f5761066e610598565b5b61067b868287016105ac565b9350935050602061068e86828701610623565b9150509250925092565b600081519050919050565b600082825260208201905092915050565b6000819050602082019050919050565b600081519050919050565b600082825260208201905092915050565b60005b838110156106fe5780820151818401526020810190506106e3565b60008484015250505050565b6000601f19601f8301169050919050565b6000610726826106c4565b61073081856106cf565b93506107408185602086016106e0565b6107498161070a565b840191505092915050565b61075d81610602565b82525050565b600073ffffffffffffffffffffffffffffffffffffffff82169050919050565b600061078e82610763565b9050919050565b61079e81610783565b82525050565b600060808301600083015184820360008601526107c1828261071b565b91505060208301516107d66020860182610754565b5060408301516107e96040860182610754565b5060608301516107fc6060860182610795565b508091505092915050565b600061081383836107a4565b905092915050565b6000602082019050919050565b600061083382610698565b61083d81856106a3565b93508360208202850161084f856106b4565b8060005b8581101561088b578484038952815161086c8582610807565b94506108778361081b565b925060208a01995050600181019050610853565b50829750879550505050505092915050565b600060208201905081810360008301526108b78184610828565b905092915050565b6000602082840312156108d5576108d4610593565b5b60006108e384828501610623565b91505092915050565b60006080830160008301518482036000860152610909828261071b565b915050602083015161091e6020860182610754565b5060408301516109316040860182610754565b5060608301516109446060860182610795565b508091505092915050565b6000602082019050818103600083015261096981846108ec565b905092915050565b600082825260208201905092915050565b7f76657279206c6573732065746865720000000000000000000000000000000000600082015250565b60006109b8600f83610971565b91506109c382610982565b602082019050919050565b600060208201905081810360008301526109e7816109ab565b9050919050565b7f4e487b7100000000000000000000000000000000000000000000000000000000600052604160045260246000fd5b7f4e487b7100000000000000000000000000000000000000000000000000000000600052602260045260246000fd5b60006002820490506001821680610a6457607f821691505b602082108103610a7757610a76610a1d565b5b50919050565b60008190508160005260206000209050919050565b60006020601f8301049050919050565b600082821b905092915050565b600060088302610adf7fffffffffffffffffffffffffffffffffffffffffffffffffffffffffffffffff82610aa2565b610ae98683610aa2565b95508019841693508086168417925050509392505050565b6000819050919050565b6000610b26610b21610b1c84610602565b610b01565b610602565b9050919050565b6000819050919050565b610b4083610b0b565b610b54610b4c82610b2d565b848454610aaf565b825550505050565b600090565b610b69610b5c565b610b74818484610b37565b505050565b5b81811015610b9857610b8d600082610b61565b600181019050610b7a565b5050565b601f821115610bdd57610bae81610a7d565b610bb784610a92565b81016020851015610bc6578190505b610bda610bd285610a92565b830182610b79565b50505b505050565b600082821c905092915050565b6000610c0060001984600802610be2565b1980831691505092915050565b6000610c198383610bef565b9150826002028217905092915050565b610c32826106c4565b67ffffffffffffffff811115610c4b57610c4a6109ee565b5b610c558254610a4c565b610c60828285610b9c565b600060209050601f831160018114610c935760008415610c81578287015190505b610c8b8582610c0d565b865550610cf3565b601f198416610ca186610a7d565b60005b82811015610cc957848901518255600182019150602085019450602081019050610ca4565b86831015610ce65784890151610ce2601f891682610bef565b8355505b6001600288020188555050505b505050505050565b7f4e487b7100000000000000000000000000000000000000000000000000000000600052603260045260246000fdfea264697066735822122018c4e1cb0353b634b1c1c5dc98bdb5c4c9eab4937c1fde37095d7f7b532b499c64736f6c63430008130033",
  "linkReferences": {},
  "deployedLinkReferences": {}
}